:10033D0044430A004443534B42210A004443534B68
:10034D00422053544152544544210A0057524F4EB6
:08035D004720434F44450A000C
:1000B20020402400000000000000000000000000BA
:1000C200000000000000000000000000000000002E
:1000D200000000000000000000000000000000001E
:1000E200000000000000000000000000000000000E
:1000F2000000000264000002660000C1000123004B
:100102001069000000000000000000000000000074
:0901120000000168000221000058
:10038A00759850758920758780758DFC758BFCD2A0
:0B039A00AFD2ACD28E120365C200226D
:10000E00438901C28DD2A9758C4CE4F58AC28CD27B
:04001E008CF5232218
:080003008F993099FDC299228A
:040267007BFF7C009D
:0A026B008B178A1889198C1A8D1B55
:10027500E4FDFCC3ED951BE51A6480F8EC648098F9
:100285005018AB17AA18A9198D828C83120310FF79
:100295001200030DBD00010C80D97F647E000203AE
:0102A500A5B3
:0603D5003000FDC2002211
:100365007A03793D7D041202671203D57B007A007A
:100375007924AD67AC6612026B7A0379417D071269
:050385000267C2962290
:1002DF00C296D2977FF47E011203A5B296B2977F92
:1002EF00587E021203A5B296B2977FE87E031203DF
:1002FF00A5C296C2977F807E0C1203A5D296D29785
:01030F0022CB
:10022100E52464447031E5256461702BE52664633F
:100231007025E527B46120E528B4691B7BFF7A03AB
:1002410079497D0F7C0012026BC2977FD07E071225
:1002510003A51202DFD3227BFF7A0379597D0B7C40
:060261000012026BC32233
:0100220022BB
:0103E10022F9
:1003A500D3EF9400EE9400400F7D267C0CDCFEDD3F
:0803B500FAEF1F70EB1E80E857
:0103BD00221D
:0603DB001202DF02038A9A
:1002A6002094063094FD7F01222095063095FD7F2F
:1002B60002222092063092FD7F032220930630937D
:1002C600FD7F04222090063090FD7F0522209106B6
:0902D6003091FD7F06227F002219
:1003BE00E4F516E516700F1203D5B296120221500F
:0603CE000122C20080EDD7
:0103D4002206
:1001DA00E4F5151203DB1203BE1202A68F15E5150C
:1001EA00602CC2A9C28C12000EE5152430FFAE683D
:1001FA00056874692EF8A607D2967F647E001203FA
:10020A00A5C2967F647E001203A5D29680CB7F0A90
:07021A007E001203A580C263
:03000B000201856A
:0D018500C0E0C0F0C083C082C0D075D008BB
:100192000522E52270020521B297C3940FE521647E
:1001A2008094804028B297752100752200E568246A
:1001B20030FF1200037B007A007969E568FD7C005C
:0D01C20012026B7F0A120003756800C28CE8
:0B01CF00D0D0D082D083D0F0D0E0323E
:0300230002011CBB
:0B011C00C0E0C0D075D000C000C007DC
:10012700AF99BF0A0A0565E56570220564801EBFA1
:10013700A50D1200220565E56570300564802CBFAA
:10014700EF211203E10565E56570020564142424B7
:10015700F8A607856466856567756400756500D2CE
:1001670000800E0565E56570020564142424F8A671
:0501770007C298C299C7
:09017C00D007D000D0D0D0E03251
:03000000020026D5
:0C002600787FE4F6D8FD75817802006D4B
:10031000BB010CE58229F582E5833AF583E02250A2
:1003200006E92582F8E622BBFE06E92582F8E222EC
:0D033000E58229F582E5833AF583E4932206
:100032000201DAE493A3F8E493A34003F68001F209
:1000420008DFF48029E493A3F85407240CC8C333CF
:10005200C4540F4420C8834004F456800146F6DF9E
:10006200E4800B01020408102040809000B2E47E7C
:10007200019360BCA3FF543F30E509541FFEE49393
:10008200A360010ECF54C025E060A840B8E493A35A
:10009200FAE493A3F8E493A3C8C582C8CAC583CA85
:1000A200F0A3C8C582C8CAC583CADFE9DEE780BE3D
:01011B0000E3
:00000001FF
